:020000040000FA
:060000000A128A110C280F
:10000800FE00030EF1000A08F2000A128A11F5290F
:100018000A128A110F28F701F801F9018313203019
:10002800840035300A128A11D7220A128A118301F4
:100038000A128A115D2A83120313B90039080319B9
:10004800262827283B28F61F2A282B283B2873090F
:10005800BB007409BC007509BD007609BE00BB0A67
:100068000319BC0A0319BD0A0319BE0A43287608F6
:10007800BE007508BD007408BC007308BB00760894
:10008800750474047304031D4A284B28542800304F
:10009800F6000030F5000030F4000030F300DA28F4
:1000A8009630B5003508BA0066280130B500350825
:1000B800BA0701300310BE0CBD0CBC0CBB0CFF3ED4
:1000C800031D5E28FE303E05031D6B286C28592849
:1000D80088280130B5003508BA070130BB07003061
:1000E80003180130BC07003003180130BD07003089
:1000F80003180130BE0701300310BE0CBD0CBC0C48
:10010800BB0CFF3E031D8028FF303E05031D8D28D4
:100118008E286D289A280130BA020130B5000310E4
:10012800BB0DBC0DBD0DBE0DB50B9328BD1B9D2889
:100138009E28A42802303A020318A328A4288F284E
:100148003A18A728A828B028FF30BB05FF30BC05FF
:100158007F30BD05FF30BE050310BA0C3A08B50064
:10016800B601B701B80118300310B50DB60DB70DBB
:10017800B80DFF3E031DB8283508BB043608BC047B
:100188003708BD043808BE0439080319CC28CD281F
:10019800D228F61FD028D128D228BE173E08F6004C
:1001A8003D08F5003C08F4003B08F3000800F500A2
:1001B8008B170B17831603130C17831203130C17D3
:1001C8009F131F171F1438299F121F129F111F11E9
:1001D80072299F121F129F111F1572299F121F1239
:1001E8009F151F1172299F121F129F151F15722923
:1001F8009F121F169F111F1172299F121F169F1100
:100208001F1572299F121F169F151F1172299F1201
:100218001F169F151F1572299F161F129F111F1158
:1002280072299F161F129F111F1172299F161F12E4
:100238009F111F1572299F161F129F151F157229CE
:100248009F161F169F111F1172299F161F169F11A7
:100258001F1572299F161F169F151F1172299F16A9
:100268001F169F151F1572297508F300F4017408ED
:10027800003A0319402972297308003A0319E8283B
:10028800013A0319ED28033A0319F228013A031930
:10029800F728073A0319FC28013A03190129033AF8
:1002A80003190629013A03190B290F3A03191029D2
:1002B800013A03191529033A03191A29013A0319AE
:1002C8001F29073A03192429013A03192929033A4E
:1002D80003192E29013A03193329722983160313A6
:1002E8009F01831203139F1408000310750D760DE8
:1002F80083120313B5003508BB003B08031D85298D
:1003080086298F290030F6000030F5000030F4000F
:100318000030F300F4297308B5007408B6007508B6
:10032800B7007608B8001F300310B80CB70CB60C2D
:10033800B50CFF3E031D98293508B9003908BA00E5
:10034800F517FF30F305FF30F405FF30F5050030F1
:10035800F6059630BB02BB1FB229B329CD293B084D
:10036800803A973E0318B929BA29BB298629013052
:100378000310F60CF50CF40CF30CFF3E031DBC291E
:100388000130B5003508BB07031DCB29CC29BB2993
:10039800E42920303B02031CD229D329DF298629EE
:1003A8000130B5000310F30DF40DF50DF60DB50B86
:1003B800D6290130BB023B08031DE329E429D429CF
:1003C8003A080319E829E929F429F309F409F50990
:1003D800F609F30A0319F40A0319F50A0319F60AC8
:1003E8000800831203139F18FA29FB29FE29F70135
:1003F800F70A0C138C1D012A022A562A1412141B00
:10040800062A072A0B2A941F0A2A0B2A122A1308DB
:10041800F0007008F90014139413141683160313CC
:10042800941A172A182A332A14191B2A1C2A332A21
:10043800831203131308F0007008F9008C111416C6
:1004480083160313141C292A2A2A242A8312031325
:10045800130888005330F000F00B302A532A941AFE
:10046800362A372A532A141D3A2A3B2A532A83123A
:1004780003131308F0007008F9008316031314100F
:10048800831203130608930014165330F000F00B80
:100498004B2A831603131418522A532A4D2A8312FF
:1004A80003138C1172088A00710E8300FE0E7E0EF3
:1004B800090001308316031788008901013083166B
:1004C80003138500860188018312031385018601C1
:1004D800880150300A128A11B4220A128A11003097
:1004E8000A128A11DB200A128A11770803197D2A59
:1004F8007E2A732A831203131E08BF00C001C1019C
:10050800C2014208F6004108F5004008F4003F081F
:10051800F30000300A128A111F200A128A11760885
:1005280083120313AF007508AE007408AD0073089A
:10053800AC002F08F6002E08F5002D08F4002C0852
:10054800F3000A128A1179210A128A117308831298
:1005580003138600F7019F14732A0A128A110C28C4
:10056800F3007308831603139300363083120313C2
:10057800940080308316031394000130910087158E
:1005880007168B170B17831203138C11831603138B
:100598008C15080002308A000408840A8207003497
:1005A80025346434003464008001840A0406031985
:0605B80000340406D82AFD
:04400E00D4E0FFFFFC
:00000001FF
