:020000040000FA
:060000000A128A110C280F
:10000800FE00030EF6000A08F7000A128A111828E3
:100018000A128A110F28F001F101F201F301F4012B
:1000280083010A128A11AA280B1C1B281C2847289E
:100038000B107908031D212822284728831203134F
:10004800061C272828283528F901F90A0130F50067
:100058007508F20710307202031C3328342835283B
:10006800F201861C382839284728F901F90A72084C
:10007800031D3F28402845280F30F5007508F20079
:1000880047280130F202831203138C1D4C284D2897
:10009800A3281412141B512852285628941F552897
:1000A80056285D281308F5007508F40014139413F6
:1000B800141683160313941A622863287F281419C8
:1000C800662867287F28831203131308F50075082C
:1000D800F4008C11141683160313141C7428752845
:1000E8006F288312031313088800A630F500F50B58
:1000F8007B280000A028941A82288328A028141D91
:1001080086288728A028831203131308F50075088A
:10011800F4008316031314108312031305089300C5
:100128001416A630F500F50B972800008316031364
:1001380014189F28A0289A28831203138C11770873
:100148008A00760E8300FE0E7E0E090083160313C6
:100158008501860188010614861486168312031306
:1001680085018601880183160317880189018B019F
:100178008B178B150B108316031396011614961400
:100188000B1760300A128A11D5200A128A11F90158
:1001980072088312031385009F14CB280A128A1150
:1001A8000C28F8007808831603139300363083125E
:1001B80003139400803083160313940001309100D8
:1001C800871507168B170B17831203138C118316C9
:0601D80003138C15080062
:04400E00D4E0FFFFFC
:00000001FF
