:020000040000FA
:100000000A128A11F52FFF1B0D2883137F188317FF
:100010000008840A0319FF0A080000308A00040857
:10002000840A82070034013400340A340034643412
:100030000034E8340334103427345334313400347A
:10004000533432340034533433340034253464347C
:06005000003430340034DE
:1005360001300A128A11CB220A128A1108000A1205
:100546008A11BE220A128A11831603131114080097
:100556000A128A11BE220A128A1183160313111572
:1005660008000A128A11BE220A128A117008831222
:10057600031393000800831603131419C32AC42A0D
:10058600BE2A11081F39031DC92ACA2ABE2A080015
:10059600F2008312031306137208880086170B30C5
:1005A600F1006230F000F00BD62AF10BD62A0000DB
:1005B6008312031386130800F2008312031306172F
:1005C6007208880086170B30F1006230F000F00BDD
:1005D600EA2AF10BEA2A00008312031386130800A5
:1005E600F300F201731CF82AF92AFD2A7008F100BB
:1005F6007108F2070310F00D0310F30C7308031DC6
:10060600052B062BF52A72080800F4007303031D58
:100616000D2B0E2B152B74087F3E0A128A11CB2246
:100626000A128A1102307306031D1A2B1B2B222B6A
:100636007408BF3E0A128A11CB220A128A110800D8
:1006460083120313B4001430AD002D08A000340843
:10065600AE00AF012E08A1002F08A20030300A120A
:100666008A11AA250A128A113030F3000030F400EC
:100676000A128A1106240A128A110800F401F501E9
:10068600701C462B472B4D2B7208F4070318F50AEE
:100696007308F50701300310F20DF30DFF3E031D3D
:1006A6004E2B01300310F10CF00CFF3E031D552BB1
:1006B60070087104031D602B612B432B7508F10034
:1006C6007408F00008000A128A11BE220A128A1162
:1006D6008316031391150A128A11BE220A128A1171
:1006E600831203131308F200F3017208F40073086F
:1006F600F5000A128A11BE220A128A1170037104C9
:10070600031D862B872B8B2B8316031391128E2B9F
:1007160083160313911611167508F1007408F0007C
:1007260008002830831203139400831603139101E3
:10073600831203132008A4002108A5002208A6009E
:100746002308A70002300310A40DA50DA60DA70DC2
:10075600FF3E031DA62B2708F3002608F2002508F6
:10076600F1002408F0000030F7007A30F60012306D
:10077600F5000030F4000A128A11DB240A128A11ED
:100786007008FF3E8316031393009401871507161E
:100796000800780879040319D12BD22B012CFD010E
:1007A600FD0AE02B01300310F80DF90DFF3E031D85
:1007B600D62B0130FC007C08FD07F91FE32BE42B48
:1007C600D52B79087B02031DEA2B78087A02031CD5
:1007D600ED2BEE2BF42B7808FA027908031CFB03A9
:1007E600FB0201300310F90CF80CFF3E031DF52B3C
:1007F6000130FD02031D002C012CE42B7B08F900BF
:100806007A08F8000800F801F9012B2C780873071C
:10081600F6007408F5000318F50AF81F132CF50303
:100826007508F700770883120313FF007608840023
:100836000A128A1103200A128A110A128A11DF2269
:100846000A128A110130F8070318F90A0030F9076D
:1008560078087307F6007408F5000318F50AF81F00
:10086600352CF5037508F700770883120313FF008C
:10087600760884000A128A1103200A128A11003AA5
:10088600031D462C472C092C0800F501F6017008BB
:10089600710403194F2C502C872CF701F70A5E2C94
:1008A60001300310F00DF10DFF3E031D542C0130F5
:1008B600F4007408F707F11F612C622C532C0130E9
:1008C6000310F50DF60DFF3E031D632C7108730230
:1008D600031D6F2C70087202031C722C732C7A2C69
:1008E6007008F2027108031CF303F3027514013059
:1008F6000310F10CF00CFF3E031D7B2C0130F702B8
:10090600031D862C872C622C7608F1007508F000F2
:1009160008002730F400F530F300F30B902CF40BAD
:10092600902C30300A128A11CB220A128A110D300D
:10093600F400FB30F300F30B9E2CF40B9E2CA32C3F
:1009460030300A128A11CB220A128A111D30F400A5
:100956009130F300F30BAD2CF40BAD2C30300A12B2
:100966008A11CB220A128A116A30F300F30BB92CD2
:10097600000038300A128A11CB220A128A1110306E
:100986000A128A11CB220A128A1101300A128A111E
:10099600CB220A128A1106300A128A11CB220A12B7
:1009A6008A110C300A128A11CB220A128A11080007
:1009B6000030FC000030FB000030FA000030F90087
:1009C60073087204710470040319EA2CEB2C382D99
:1009D600FD01FD0AFB2C0130F8000310F00DF10DAE
:1009E600F20DF30DF80BF02C0130F8007808FD0736
:1009F600F31FFE2CFF2CEE2C0130F8000310F90D2E
:100A0600FA0DFB0DFC0DF80B012D73087702031D83
:100A1600162D72087602031D162D71087502031D28
:100A2600162D70087402031C192D1A2D292D700815
:100A3600F4027108031C710FF5027208031C720F91
:100A4600F6027308031C730FF702791401300310C2
:100A5600F30CF20CF10CF00CFF3E031D2A2D0130B5
:100A6600FD02031D372D382DFF2C7C08F3007B0873
:100A7600F2007A08F1007908F000080083120313E7
:100A8600A101F71F472D482D4F2DF609F709F60A44
:100A96000319F70AA101A10AF91F522D532D5C2D46
:100AA600F809F909F80A0319F90A0130FA007A086F
:100AB600A106A201A301760877040319632D642D0C
:100AC6009B2DA001A00A722D01300310F60DF70D23
:100AD600FF3E031D682D0130FA007A08A007F71FB4
:100AE600752D762D672D01300310A20DA30DFF3E47
:100AF600031D772D77087902031D832D760878026A
:100B0600031C862D872D8E2D7608F8027708031C88
:100B1600F903F902221401300310F70CF60CFF3E1C
:100B2600031D8F2D0130A002031D9A2D9B2D762DBE
:100B3600210803199F2DA02DA52DA209A309A20AFC
:100B46000319A30A2308F7002208F60008008312F7
:100B56000313AB002130A3002308A6007B2E25300B
:100B66002C060319B72DB82DC42D2C08A3002B086D
:100B760084002308831380000130A3002308AB07F9
:100B86007B2EA7010130A007FF30200784000A1240
:100B96008A110D200A128A11AC00A300A4012408B0
:100BA600003A0319D72D7B2E2308003A03198D2E00
:100BB600643A0319E22D0D3A0319E22D7B2E26081D
:100BC600840083130008A900840A0008AA000230E2
:100BD600A3002308A607AA1FF12DF22DFB2D033033
:100BE600A3002308A704A909AA09A90A0319AA0A9E
:100BF600AC01AC0A2C08A3002307013E84000A12AC
:100C06008A110D200A128A11A4000A128A110D20D7
:100C16000A128A11A50025082A02031D142E24088B
:100C260029020318172E182E192E232E0130A30081
:100C36002308AC0705302C06031D222E232EFD2D7E
:100C4600270803390319282E292E342E2D30A30008
:100C56002B0884002308831380000130A300230897
:100C6600AB072C08A3002308A800722E0A30F80050
:100C76000030F9002808A3002307013E84000A1269
:100C86008A110D200A128A11F0000A128A110D200B
:100C96000A128A11F1002A08F3002908F2000A1242
:100CA6008A1148240A128A117108FB007008FA009A
:100CB6000A128A11CC230A128A117808303E83124E
:100CC6000313A4002408AC002C08A3002B088400FE
:100CD6002308831380000130A3002308AB07FF30ED
:100CE600A3002308A807280A031D7A2E7B2E392E77
:100CF6000130A007FF30200784000A128A110D2058
:100D06000A128A11A3002308AC002C08031D8C2E9E
:100D16008D2EB22D2B088400831380010800FF302E
:100D2600831603138500860187018801831603173E
:100D360088018312031385018601870188010A123F
:100D46008A118C240A128A110A128A119B220A120B
:100D56008A11003083120313A3000130A2008630EB
:100D6600A100A030A0000A128A1194230A128A1147
:100D76000A128A119B220A128A11F301F30A013020
:100D86000A128A1108230A128A110B30F3008030E6
:100D9600F4000A128A1106240A128A11F301F30AD0
:100DA60007300A128A1108230A128A110E30F3003C
:100DB6008030F4000A128A1106240A128A11F301FD
:100DC600F30A0D300A128A1108230A128A11113009
:100DD600F3008030F4000A128A1106240A128A11DE
:100DE6000A128A11A2220A128A115130F00000302A
:100DF600F1000A128A11B4220A128A110030F00098
:100E0600F1000A128A1166230A128A1170088312E7
:100E16000313B5003508BC000A128A11AB220A1268
:100E26008A110D3083120313B600FB30B500B50BE3
:100E36001A2FB60B1A2F0A128A11A2220A128A1127
:100E46006130F0000030F1000A128A11B4220A1251
:100E56008A110030F000F1000A128A1166230A1284
:100E66008A11700883120313B5003508BB000A12F5
:100E76008A11AB220A128A110D3083120313B600AF
:100E8600FB30B500B50B452FB60B452FFF30F600EE
:100E96000030F700831203133C08B500B60135088D
:100EA600F0003608F1000530F2000030F3000A12B7
:100EB6008A1141230A128A117108F9007008F80094
:100EC6000A128A1141250A128A117608831203131F
:100ED600B7003708BC003C08B5003508BA006430D6
:100EE600B5003508F0003A083C020A128A11F322CE
:100EF6000A128A1183120313B6003608B80038089E
:100F0600B5003508B9000230B5003508F3000130E8
:100F16000A128A1108230A128A11831203133A0845
:100F26000A128A1123230A128A112E300A128A11F2
:100F3600DF220A128A110A30831203133902031CB4
:100F4600A52FA62FAD2F39080A128A1123230A12BC
:100F56008A11BB2F30300A128A11DF220A128A1137
:100F66008312031339080A128A1123230A128A11DB
:100F76000A30831203133B020318C22FC32FDF2F3D
:100F86000230B5003508F30008300A128A1108232A
:100F96000A128A111730F3008030F4000A128A11FF
:100FA60006240A128A11831203133B080A128A11B5
:100FB60023230A128A11F32E0230B5003508F300F6
:100FC60008300A128A1108230A128A11831203139F
:100FD6003B080A128A1123230A128A11F32E0A12D7
:100FE6008A11002883120313B801B901BA01BB01A3
:0A0FF600BC0183010A128A11922E39
:04400E00D4E0FFFFFC
:00000001FF
