:020000040000FA
:100000000A128A11F52FFF1B0D2883137F188317FF
:100010000008840A0319FF0A080000308A00040857
:10002000840A82070034013400340A340034643412
:100030000034E8340334103427345334313400347A
:10004000533432340034533433340034253464347C
:0200500000347A
:1005EC0001300A128A1126230A128A1108000A12F3
:1005FC008A1119230A128A11831603131114080085
:10060C000A128A1119230A128A118316031311155F
:10061C0008000A128A1119230A128A11700883120F
:10062C000313930008008316031314191E2B1F2B9E
:10063C00192B11081F39031D242B252B192B0800EE
:10064C00F2008312031306137208880086170B300E
:10065C00F1006230F000F00B312BF10B312B00006C
:10066C008312031386130800F20083120313061778
:10067C007208880086170B30F1006230F000F00B26
:10068C00452BF10B452B0000831203138613080036
:10069C00F300F201731C532B542B582B7008F100F0
:1006AC007108F2070310F00D0310F30C7308031D0F
:1006BC00602B612B502B72080800F4007303031D90
:1006CC00682B692B702B74087F3E0A128A11262323
:1006DC000A128A1102307306031D752B762B7D2BA3
:1006EC007408BF3E0A128A1126230A128A110800C6
:1006FC0083120313B4001430AD002D08A00034088D
:10070C00AE00AF012E08A1002F08A20030300A1253
:10071C008A1105260A128A113030F3000030F400D9
:10072C000A128A1161240A128A110800F401F501D7
:10073C00701CA12BA22BA82B7208F4070318F50A26
:10074C007308F50701300310F20DF30DFF3E031D86
:10075C00A92B01300310F10CF00CFF3E031DB02B44
:10076C0070087104031DBB2BBC2B9E2B7508F1006C
:10077C007408F00008000A128A1119230A128A114F
:10078C008316031391150A128A1119230A128A115E
:10079C00831203131308F200F3017208F4007308B8
:1007AC00F5000A128A1119230A128A1170037104B6
:1007BC00031DE12BE22BE62B831603139112E92B7D
:1007CC0083160313911611167508F1007408F000C6
:1007DC00080028308312031394008316031391012D
:1007EC00831203132008A4002108A5002208A600E8
:1007FC002308A70002300310A40DA50DA60DA70D0C
:10080C00FF3E031D012C2708F3002608F2002508E3
:10081C00F1002408F0000030F7007A30F6001230B6
:10082C00F5000030F4000A128A1136250A128A11DA
:10083C007008FF3E83160313930094018715071667
:10084C0008007808790403192C2C2D2C5C2CFD0144
:10085C00FD0A3B2C01300310F80DF90DFF3E031D72
:10086C00312C0130FC007C08FD07F91F3E2C3F2C7D
:10087C00302C79087B02031D452C78087A02031C66
:10088C00482C492C4F2C7808FA027908031CFB03DE
:10089C00FB0201300310F90CF80CFF3E031D502C29
:1008AC000130FD02031D5B2C5C2C3F2C7B08F900F6
:1008BC007A08F8000800F801F901862C780873070B
:1008CC00F6007408F5000318F50AF81F6E2CF503F2
:1008DC007508F700770883120313FF00760884006D
:1008EC000A128A1103200A128A110A128A113A2357
:1008FC000A128A110130F8070318F90A0030F907B7
:10090C0078087307F6007408F5000318F50AF81F49
:10091C00902CF5037508F700770883120313FF007A
:10092C00760884000A128A1103200A128A11003AEE
:10093C00031DA12CA22C642C0800F501F6017008F3
:10094C0071040319AA2CAB2CE22CF701F70AB92C71
:10095C0001300310F00DF10DFF3E031DAF2C0130E3
:10096C00F4007408F707F11FBC2CBD2CAE2C013021
:10097C000310F50DF60DFF3E031DBE2C710873021E
:10098C00031DCA2C70087202031CCD2CCE2CD52C46
:10099C007008F2027108031CF303F30275140130A2
:1009AC000310F10CF00CFF3E031DD62C0130F702A6
:1009BC00031DE12CE22CBD2C7608F1007508F0002B
:1009CC0008002730F400F530F300F30BEB2CF40B9C
:1009DC00EB2C30300A128A1126230A128A110D30A0
:1009EC00F400FB30F300F30BF92CF40BF92CFE2C78
:1009FC0030300A128A1126230A128A111D30F40093
:100A0C009130F300F30B082DF40B082D30300A1243
:100A1C008A1126230A128A116A30F300F30B142D63
:100A2C00000038300A128A1126230A128A1110305B
:100A3C000A128A1126230A128A1101300A128A110B
:100A4C0026230A128A1106300A128A1126230A1248
:100A5C008A110C300A128A1126230A128A110800F4
:100A6C000030FC000030FB000030FA000030F900D0
:100A7C0073087204710470040319452D462D932DCF
:100A8C00FD01FD0A562D0130F8000310F00DF10D9B
:100A9C00F20DF30DF80B4B2D0130F8007808FD0723
:100AAC00F31F592D5A2D492D0130F8000310F90D63
:100ABC00FA0DFB0DFC0DF80B5C2D73087702031D72
:100ACC00712D72087602031D712D71087502031DBC
:100ADC00712D70087402031C742D752D842D7008F3
:100AEC00F4027108031C710FF5027208031C720FDB
:100AFC00F6027308031C730FF7027914013003100C
:100B0C00F30CF20CF10CF00CFF3E031D852D0130A3
:100B1C00FD02031D922D932D5A2D7C08F3007B08AA
:100B2C00F2007A08F1007908F00008008312031330
:100B3C00A101F71FA22DA32DAA2DF609F709F60A7C
:100B4C000319F70AA101A10AF91FAD2DAE2DB72D7E
:100B5C00F809F909F80A0319F90A0130FA007A08B8
:100B6C00A106A201A301760877040319BE2DBF2D9F
:100B7C00F62DA001A00ACD2D01300310F60DF70DB6
:100B8C00FF3E031DC32D0130FA007A08A007F71FA2
:100B9C00D02DD12DC22D01300310A20DA30DFF3E7F
:100BAC00031DD22D77087902031DDE2D76087802FD
:100BBC00031CE12DE22DE92D7608F8027708031CC1
:100BCC00F903F902221401300310F70CF60CFF3E66
:100BDC00031DEA2D0130A002031DF52DF62DD12D9C
:100BEC0021080319FA2DFB2D002EA209A309A20A34
:100BFC000319A30A2308F7002208F6000800831241
:100C0C000313AB002130A3002308A600D62E2530F9
:100C1C002C060319122E132E1F2E2C08A3002B08A2
:100C2C0084002308831380000130A3002308AB0742
:100C3C00D62EA7010130A007FF30200784000A122E
:100C4C008A110D200A128A11AC00A300A4012408F9
:100C5C00003A0319322ED62E2308003A0319E82E37
:100C6C00643A03193D2E0D3A03193D2ED62E260853
:100C7C00840083130008A900840A0008AA0002302B
:100C8C00A3002308A607AA1F4C2E4D2E562E033068
:100C9C00A3002308A704A909AA09A90A0319AA0AE7
:100CAC00AC01AC0A2C08A3002307013E84000A12F5
:100CBC008A110D200A128A11A4000A128A110D2021
:100CCC000A128A11A50025082A02031D6F2E24087A
:100CDC0029020318722E732E742E7E2E0130A3005F
:100CEC002308AC0705302C06031D7D2E7E2E582EB6
:100CFC00270803390319832E842E8F2E2D30A30041
:100D0C002B0884002308831380000130A3002308E0
:100D1C00AB072C08A3002308A800CD2E0A30F8003E
:100D2C000030F9002808A3002307013E84000A12B2
:100D3C008A110D200A128A11F0000A128A110D2054
:100D4C000A128A11F1002A08F3002908F2000A128B
:100D5C008A11A3240A128A117108FB007008FA0088
:100D6C000A128A1127240A128A117808303E83123B
:100D7C000313A4002408AC002C08A3002B08840047
:100D8C002308831380000130A3002308AB07FF3036
:100D9C00A3002308A807280A031DD52ED62E942EAF
:100DAC000130A007FF30200784000A128A110D20A1
:100DBC000A128A11A3002308AC002C08031DE72E8D
:100DCC00E82E0D2E2B088400831380010800FF30C1
:100DDC008316031385008601870188018316031788
:100DEC0088018312031385018601870188010A1289
:100DFC008A11E7240A128A110A128A11F6220A129F
:100E0C008A11003083120313A3000130A200863034
:100E1C00A100A030A0000A128A11EF230A128A1135
:100E2C000A128A11F6220A128A11F301F30A01300E
:100E3C000A128A1163230A128A110B30F3008030D4
:100E4C00F4000A128A1161240A128A11F301F30ABE
:100E5C0007300A128A1163230A128A110E30F3002A
:100E6C008030F4000A128A1161240A128A11F301EB
:100E7C00F30A0D300A128A1163230A128A111130F7
:100E8C00F3008030F4000A128A1161240A128A11CC
:100E9C000A128A11FD220A128A115130F000003018
:100EAC00F1000A128A110F230A128A110030F00085
:100EBC00F1000A128A11C1230A128A1170088312D6
:100ECC000313B5003508BC000A128A1106230A1256
:100EDC008A110D3083120313B600FB30B500B50B2D
:100EEC00752FB60B752FFF30F6000030F70083120C
:100EFC0003133C08B500B6013508F0003608F100C4
:100F0C000530F2000030F3000A128A119C230A12F9
:100F1C008A117108F9007008F8000A128A119C25D0
:100F2C000A128A11760883120313B7003708BC0023
:100F3C003C08B5003508BA006430B5003508F0003F
:100F4C003A083C020A128A114E230A128A118312A1
:100F5C000313B6003608B8003808B5003508B900D8
:100F6C000230B5003508F30001300A128A116323F0
:100F7C000A128A11831203133A080A128A117E2369
:100F8C000A128A112E300A128A113A230A128A1175
:100F9C000A30831203133902031CD52FD62FDD2FF1
:100FAC0039080A128A117E230A128A11EB2F30306B
:100FBC000A128A113A230A128A118312031339086E
:100FCC000A128A117E230A128A1156300A128A11C9
:100FDC003A230A128A114E2F0A128A110028831200
:100FEC000313B801B901BA01BB01BC0183010A1298
:040FFC008A11ED2E3B
:04400E00D4E0FFFFFC
:00000001FF
