:020000040000FA
:100000000A128A11F52FFF1B0D2883137F188317FF
:100010000008840A0319FF0A080000308A00040857
:10002000840A82070034013400340A340034643412
:100030000034E8340334103427345334313400347A
:10004000533432340034533433340034253464347C
:06005000003430340034DE
:10052A0001300A128A11C5220A128A1108000A1217
:10053A008A11B8220A128A118316031311140800A9
:10054A000A128A11B8220A128A1183160313111584
:10055A0008000A128A11B8220A128A117008831234
:10056A00031393000800831603131419BD2ABE2A25
:10057A00B82A11081F39031DC32AC42AB82A080039
:10058A00F2008312031306137208880086170B30D1
:10059A00F1006230F000F00BD02AF10BD02A0000F3
:1005AA008312031386130800F2008312031306173B
:1005BA007208880086170B30F1006230F000F00BE9
:1005CA00E42AF10BE42A00008312031386130800BD
:1005DA00F300F201731CF22AF32AF72A7008F100D9
:1005EA007108F2070310F00D0310F30C7308031DD2
:1005FA00FF2A002BEF2A72080800F4007303031D78
:10060A00072B082B0F2B74087F3E0A128A11C5226A
:10061A000A128A1102307306031D142B152B1C2B88
:10062A007408BF3E0A128A11C5220A128A110800EA
:10063A0083120313B4001430AD002D08A00034084F
:10064A00AE00AF012E08A1002F08A20030300A1216
:10065A008A11A4250A128A113030F3000030F400FE
:10066A000A128A1100240A128A110800F401F501FB
:10067A00701C402B412B472B7208F4070318F50A0C
:10068A007308F50701300310F20DF30DFF3E031D49
:10069A00482B01300310F10CF00CFF3E031D4F2BC9
:1006AA0070087104031D5A2B5B2B3D2B7508F10052
:1006BA007408F00008000A128A11B8220A128A1174
:1006CA008316031391150A128A11B8220A128A1183
:1006DA00831203131308F200F3017208F40073087B
:1006EA00F5000A128A11B8220A128A1170037104DB
:1006FA00031D802B812B852B831603139112882BC4
:10070A0083160313911611167508F1007408F00088
:10071A0008002830831203139400831603139101EF
:10072A00831203132008A4002108A5002208A600AA
:10073A002308A70002300310A40DA50DA60DA70DCE
:10074A00FF3E031DA02B2708F3002608F200250808
:10075A00F1002408F0000030F7007A30F600123079
:10076A00F5000030F4000A128A11D5240A128A11FF
:10077A007008FF3E8316031393009401871507162A
:10078A000800780879040319CB2BCC2BFB2BFD012D
:10079A00FD0ADA2B01300310F80DF90DFF3E031D97
:1007AA00D02B0130FC007C08FD07F91FDD2BDE2B66
:1007BA00CF2B79087B02031DE42B78087A02031CED
:1007CA00E72BE82BEE2B7808FA027908031CFB03C7
:1007DA00FB0201300310F90CF80CFF3E031DEF2B4E
:1007EA000130FD02031DFA2BFB2BDE2B7B08F900DF
:1007FA007A08F8000800F801F901252C780873072F
:10080A00F6007408F5000318F50AF81F0D2CF50315
:10081A007508F700770883120313FF00760884002F
:10082A000A128A1103200A128A110A128A11D9227B
:10083A000A128A110130F8070318F90A0030F90779
:10084A0078087307F6007408F5000318F50AF81F0C
:10085A002F2CF5037508F700770883120313FF009E
:10086A00760884000A128A1103200A128A11003AB1
:10087A00031D402C412C032C0800F501F6017008D9
:10088A0071040319492C4A2C812CF701F70A582CB8
:10089A0001300310F00DF10DFF3E031D4E2C013007
:1008AA00F4007408F707F11F5B2C5C2C4D2C013007
:1008BA000310F50DF60DFF3E031D5D2C7108730242
:1008CA00031D692C70087202031C6C2C6D2C742C8D
:1008DA007008F2027108031CF303F3027514013065
:1008EA000310F10CF00CFF3E031D752C0130F702CA
:1008FA00031D802C812C5C2C7608F1007508F00011
:10090A0008002730F400F530F300F30B8A2CF40BBF
:10091A008A2C30300A128A11C5220A128A110D3025
:10092A00F400FB30F300F30B982CF40B982C9D2C5D
:10093A0030300A128A11C5220A128A111D30F400B7
:10094A009130F300F30BA72CF40BA72C30300A12CA
:10095A008A11C5220A128A116A30F300F30BB32CEA
:10096A00000038300A128A11C5220A128A11103080
:10097A000A128A11C5220A128A1101300A128A1130
:10098A00C5220A128A1106300A128A11C5220A12CF
:10099A008A110C300A128A11C5220A128A11080019
:1009AA000030FC000030FB000030FA000030F90093
:1009BA0073087204710470040319E42CE52C322DB7
:1009CA00FD01FD0AF52C0130F8000310F00DF10DC0
:1009DA00F20DF30DF80BEA2C0130F8007808FD0748
:1009EA00F31FF82CF92CE82C0130F8000310F90D4C
:1009FA00FA0DFB0DFC0DF80BFB2C73087702031D97
:100A0A00102D72087602031D102D71087502031D40
:100A1A00102D70087402031C132D142D232D700839
:100A2A00F4027108031C710FF5027208031C720F9D
:100A3A00F6027308031C730FF702791401300310CE
:100A4A00F30CF20CF10CF00CFF3E031D242D0130C7
:100A5A00FD02031D312D322DF92C7C08F3007B0891
:100A6A00F2007A08F1007908F000080083120313F3
:100A7A00A101F71F412D422D492DF609F709F60A62
:100A8A000319F70AA101A10AF91F4C2D4D2D562D64
:100A9A00F809F909F80A0319F90A0130FA007A087B
:100AAA00A106A201A3017608770403195D2D5E2D24
:100ABA00952DA001A00A6C2D01300310F60DF70D3B
:100ACA00FF3E031D622D0130FA007A08A007F71FC6
:100ADA006F2D702D612D01300310A20DA30DFF3E65
:100AEA00031D712D77087902031D7D2D7608780282
:100AFA00031C802D812D882D7608F8027708031CA7
:100B0A00F903F902221401300310F70CF60CFF3E28
:100B1A00031D892D0130A002031D942D952D702DE2
:100B2A0021080319992D9A2D9F2DA209A309A20A1A
:100B3A000319A30A2308F7002208F6000800831203
:100B4A000313AB002130A3002308A600752E25301D
:100B5A002C060319B12DB22DBE2D2C08A3002B088B
:100B6A0084002308831380000130A3002308AB0705
:100B7A00752EA7010130A007FF30200784000A1252
:100B8A008A110D200A128A11AC00A300A4012408BC
:100B9A00003A0319D12D752E2308003A0319872E1E
:100BAA00643A0319DC2D0D3A0319DC2D752E26083B
:100BBA00840083130008A900840A0008AA000230EE
:100BCA00A3002308A607AA1FEB2DEC2DF52D033051
:100BDA00A3002308A704A909AA09A90A0319AA0AAA
:100BEA00AC01AC0A2C08A3002307013E84000A12B8
:100BFA008A110D200A128A11A4000A128A110D20E4
:100C0A000A128A11A50025082A02031D0E2E24089D
:100C1A0029020318112E122E132E1D2E0130A300A5
:100C2A002308AC0705302C06031D1C2E1D2EF72D9C
:100C3A00270803390319222E232E2E2E2D30A30026
:100C4A002B0884002308831380000130A3002308A3
:100C5A00AB072C08A3002308A8006C2E0A30F80062
:100C6A000030F9002808A3002307013E84000A1275
:100C7A008A110D200A128A11F0000A128A110D2017
:100C8A000A128A11F1002A08F3002908F2000A124E
:100C9A008A1142240A128A117108FB007008FA00AC
:100CAA000A128A11C6230A128A117808303E831260
:100CBA000313A4002408AC002C08A3002B0884000A
:100CCA002308831380000130A3002308AB07FF30F9
:100CDA00A3002308A807280A031D742E752E332E95
:100CEA000130A007FF30200784000A128A110D2064
:100CFA000A128A11A3002308AC002C08031D862EB1
:100D0A00872EAC2D2B088400831380010800FF3046
:100D1A00831603138500860187018801831603174A
:100D2A0088018312031385018601870188010A124B
:100D3A008A1186240A128A110A128A1195220A1223
:100D4A008A11003083120313A3000130A2008630F7
:100D5A00A100A030A0000A128A118E230A128A1159
:100D6A000A128A1195220A128A11F301F30A013032
:100D7A000A128A1102230A128A110B30F3008030F8
:100D8A00F4000A128A1100240A128A11F301F30AE2
:100D9A0007300A128A1102230A128A110E30F3004E
:100DAA008030F4000A128A1100240A128A11F3010F
:100DBA00F30A0D300A128A1102230A128A1111301B
:100DCA00F3008030F4000A128A1100240A128A11F0
:100DDA000A128A119C220A128A115130F00000303C
:100DEA00F1000A128A11AE220A128A110030F000AA
:100DFA00F1000A128A1160230A128A1170088312FA
:100E0A000313B5003508BC000A128A11A5220A127A
:100E1A008A110D3083120313B600FB30B500B50BEF
:100E2A00142FB60B142F0A128A119C220A128A1145
:100E3A006130F0000030F1000A128A11AE220A1263
:100E4A008A110030F000F1000A128A1160230A1296
:100E5A008A11700883120313B5003508BB000A1201
:100E6A008A11A5220A128A110D3083120313B600C1
:100E7A00FB30B500B50B3F2FB60B3F2FFF30F60006
:100E8A000030F700831203133C08B500B601350899
:100E9A00F0003608F1000530F2000030F3000A12C3
:100EAA008A113B230A128A117108F9007008F800A6
:100EBA000A128A113B250A128A1176088312031331
:100ECA00B7003708BC003C08B5003508BA006430E2
:100EDA00B5003508F0003A083C020A128A11ED22E0
:100EEA000A128A1183120313B6003608B8003808AA
:100EFA00B5003508B9000230B5003508F3000130F5
:100F0A000A128A1102230A128A11831203133A0857
:100F1A000A128A111D230A128A112E300A128A1104
:100F2A00D9220A128A110A30831203133902031CC6
:100F3A009F2FA02FA72F39080A128A111D230A12E0
:100F4A008A11B52F30300A128A11D9220A128A114F
:100F5A008312031339080A128A111D230A128A11ED
:100F6A0056300A128A11D9220A128A110A308312B9
:100F7A0003133B020318C22FC32FDF2F0230B50021
:100F8A003508F30008300A128A1102230A128A115C
:100F9A001730F3008030F4000A128A1100240A1272
:100FAA008A11831203133B080A128A111D230A129B
:100FBA008A11ED2E0230B5003508F30008300A1206
:100FCA008A1102230A128A11831203133B080A1296
:100FDA008A111D230A128A11ED2E0A128A1100287B
:100FEA0083120313B801B901BA01BB01BC01830121
:060FFA000A128A118C2E80
:04400E00D4E0FFFFFC
:00000001FF
